{
  "_format": "hh-sol-artifact-1",
  "contractName": "Vault",
  "sourceName": "contracts/Vault.sol",
  "abi": [
    {
      "inputs": [
        {
          "internalType": "address",
          "name": "_underlying",
          "type": "address"
        },
        {
          "internalType": "string",
          "name": "_bridgeTokenSymbol",
          "type": "string"
        },
        {
          "internalType": "address",
          "name": "gateway_",
          "type": "address"
        },
        {
          "internalType": "address",
          "name": "gasReceiver_",
          "type": "address"
        }
      ],
      "stateMutability": "nonpayable",
      "type": "constructor"
    },
    {
      "inputs": [],
      "name": "InvalidAddress",
      "type": "error"
    },
    {
      "inputs": [],
      "name": "NotApprovedByGateway",
      "type": "error"
    },
    {
      "anonymous": false,
      "inputs": [
        {
          "indexed": true,
          "internalType": "address",
          "name": "previousOwner",
          "type": "address"
        },
        {
          "indexed": true,
          "internalType": "address",
          "name": "newOwner",
          "type": "address"
        }
      ],
      "name": "OwnershipTransferred",
      "type": "event"
    },
    {
      "anonymous": false,
      "inputs": [
        {
          "indexed": false,
          "internalType": "address",
          "name": "account",
          "type": "address"
        }
      ],
      "name": "Paused",
      "type": "event"
    },
    {
      "anonymous": false,
      "inputs": [
        {
          "indexed": false,
          "internalType": "address",
          "name": "account",
          "type": "address"
        }
      ],
      "name": "Unpaused",
      "type": "event"
    },
    {
      "inputs": [
        {
          "internalType": "bytes32",
          "name": "commandId",
          "type": "bytes32"
        },
        {
          "internalType": "string",
          "name": "sourceChain",
          "type": "string"
        },
        {
          "internalType": "string",
          "name": "sourceAddress",
          "type": "string"
        },
        {
          "internalType": "bytes",
          "name": "payload",
          "type": "bytes"
        }
      ],
      "name": "execute",
      "outputs": [],
      "stateMutability": "nonpayable",
      "type": "function"
    },
    {
      "inputs": [
        {
          "internalType": "bytes32",
          "name": "commandId",
          "type": "bytes32"
        },
        {
          "internalType": "string",
          "name": "sourceChain",
          "type": "string"
        },
        {
          "internalType": "string",
          "name": "sourceAddress",
          "type": "string"
        },
        {
          "internalType": "bytes",
          "name": "payload",
          "type": "bytes"
        },
        {
          "internalType": "string",
          "name": "tokenSymbol",
          "type": "string"
        },
        {
          "internalType": "uint256",
          "name": "amount",
          "type": "uint256"
        }
      ],
      "name": "executeWithToken",
      "outputs": [],
      "stateMutability": "nonpayable",
      "type": "function"
    },
    {
      "inputs": [],
      "name": "gasReceiver",
      "outputs": [
        {
          "internalType": "contract IAxelarGasService",
          "name": "",
          "type": "address"
        }
      ],
      "stateMutability": "view",
      "type": "function"
    },
    {
      "inputs": [],
      "name": "gateway",
      "outputs": [
        {
          "internalType": "contract IAxelarGateway",
          "name": "",
          "type": "address"
        }
      ],
      "stateMutability": "view",
      "type": "function"
    },
    {
      "inputs": [],
      "name": "getAPRs",
      "outputs": [
        {
          "internalType": "string[]",
          "name": "protocols",
          "type": "string[]"
        },
        {
          "internalType": "uint256[]",
          "name": "apys",
          "type": "uint256[]"
        }
      ],
      "stateMutability": "view",
      "type": "function"
    },
    {
      "inputs": [
        {
          "internalType": "string",
          "name": "name",
          "type": "string"
        }
      ],
      "name": "getAPYDataFromOtherChain",
      "outputs": [
        {
          "internalType": "uint256",
          "name": "apy",
          "type": "uint256"
        }
      ],
      "stateMutability": "view",
      "type": "function"
    },
    {
      "inputs": [],
      "name": "getAvgAPY",
      "outputs": [
        {
          "internalType": "uint256",
          "name": "avgApr",
          "type": "uint256"
        }
      ],
      "stateMutability": "view",
      "type": "function"
    },
    {
      "inputs": [],
      "name": "kToken",
      "outputs": [
        {
          "internalType": "contract FutabaToken",
          "name": "",
          "type": "address"
        }
      ],
      "stateMutability": "view",
      "type": "function"
    },
    {
      "inputs": [
        {
          "internalType": "uint256",
          "name": "_amount",
          "type": "uint256"
        }
      ],
      "name": "mintFutabaToken",
      "outputs": [
        {
          "internalType": "uint256",
          "name": "mintedTokens",
          "type": "uint256"
        }
      ],
      "stateMutability": "nonpayable",
      "type": "function"
    },
    {
      "inputs": [],
      "name": "owner",
      "outputs": [
        {
          "internalType": "address",
          "name": "",
          "type": "address"
        }
      ],
      "stateMutability": "view",
      "type": "function"
    },
    {
      "inputs": [],
      "name": "paused",
      "outputs": [
        {
          "internalType": "bool",
          "name": "",
          "type": "bool"
        }
      ],
      "stateMutability": "view",
      "type": "function"
    },
    {
      "inputs": [],
      "name": "rebalance",
      "outputs": [
        {
          "internalType": "bool",
          "name": "",
          "type": "bool"
        }
      ],
      "stateMutability": "payable",
      "type": "function"
    },
    {
      "inputs": [
        {
          "internalType": "uint256",
          "name": "_amount",
          "type": "uint256"
        }
      ],
      "name": "redeemIdleToken",
      "outputs": [
        {
          "internalType": "uint256",
          "name": "redeemedTokens",
          "type": "uint256"
        }
      ],
      "stateMutability": "nonpayable",
      "type": "function"
    },
    {
      "inputs": [],
      "name": "renounceOwnership",
      "outputs": [],
      "stateMutability": "nonpayable",
      "type": "function"
    },
    {
      "inputs": [
        {
          "internalType": "address",
          "name": "_futaba",
          "type": "address"
        }
      ],
      "name": "setFutabaDB",
      "outputs": [],
      "stateMutability": "nonpayable",
      "type": "function"
    },
    {
      "inputs": [
        {
          "internalType": "string",
          "name": "_protocolName",
          "type": "string"
        },
        {
          "components": [
            {
              "internalType": "uint16",
              "name": "chainId",
              "type": "uint16"
            },
            {
              "internalType": "address",
              "name": "src",
              "type": "address"
            },
            {
              "internalType": "string",
              "name": "valuableName",
              "type": "string"
            },
            {
              "internalType": "address",
              "name": "strategy",
              "type": "address"
            }
          ],
          "internalType": "struct Vault.Wrapper",
          "name": "_wrapper",
          "type": "tuple"
        }
      ],
      "name": "setProtocolWrapper",
      "outputs": [],
      "stateMutability": "nonpayable",
      "type": "function"
    },
    {
      "inputs": [],
      "name": "token",
      "outputs": [
        {
          "internalType": "address",
          "name": "",
          "type": "address"
        }
      ],
      "stateMutability": "view",
      "type": "function"
    },
    {
      "inputs": [
        {
          "internalType": "uint256",
          "name": "_amount",
          "type": "uint256"
        }
      ],
      "name": "tokenPrice",
      "outputs": [
        {
          "internalType": "uint256",
          "name": "price",
          "type": "uint256"
        }
      ],
      "stateMutability": "pure",
      "type": "function"
    },
    {
      "inputs": [
        {
          "internalType": "address",
          "name": "newOwner",
          "type": "address"
        }
      ],
      "name": "transferOwnership",
      "outputs": [],
      "stateMutability": "nonpayable",
      "type": "function"
    },
    {
      "inputs": [
        {
          "internalType": "address",
          "name": "",
          "type": "address"
        },
        {
          "internalType": "address",
          "name": "",
          "type": "address"
        }
      ],
      "name": "usersFutabaTokensIndexes",
      "outputs": [
        {
          "internalType": "uint256",
          "name": "",
          "type": "uint256"
        }
      ],
      "stateMutability": "view",
      "type": "function"
    }
  ],
  "bytecode": "0x60c06040523480156200001157600080fd5b506040516200713c3803806200713c83398181016040528101906200003791906200071d565b81600160008190555062000060620000546200038f60201b60201c565b6200039760201b60201c565b6000600160146101000a81548160ff021916908315150217905550600073ffffffffffffffffffffffffffffffffffffffff168173ffffffffffffffffffffffffffffffffffffffff161415620000e3576040517fe6c4247b00000000000000000000000000000000000000000000000000000000815260040160405180910390fd5b8073ffffffffffffffffffffffffffffffffffffffff1660808173ffffffffffffffffffffffffffffffffffffffff16815250505083600260006101000a81548173ffffffffffffffffffffffffffffffffffffffff021916908373ffffffffffffffffffffffffffffffffffffffff1602179055506006306040516200016a906200045d565b62000177929190620008ca565b604051809103906000f08015801562000194573d6000803e3d6000fd5b50600460006101000a81548173ffffffffffffffffffffffffffffffffffffffff021916908373ffffffffffffffffffffffffffffffffffffffff1602179055508260039080519060200190620001ed9291906200046b565b508073ffffffffffffffffffffffffffffffffffffffff1660a08173ffffffffffffffffffffffffffffffffffffffff168152505060066040518060800160405280600061ffff168152602001737547895b30f64ce44ed38e8c0fb4b40b8d611bed73ffffffffffffffffffffffffffffffffffffffff168152602001737547895b30f64ce44ed38e8c0fb4b40b8d611bed73ffffffffffffffffffffffffffffffffffffffff1681526020016064815250908060018154018082558091505060019003906000526020600020906003020160009091909190915060008201518160000160006101000a81548161ffff021916908361ffff16021790555060208201518160000160026101000a81548173ffffffffffffffffffffffffffffffffffffffff021916908373ffffffffffffffffffffffffffffffffffffffff16021790555060408201518160010160006101000a81548173ffffffffffffffffffffffffffffffffffffffff021916908373ffffffffffffffffffffffffffffffffffffffff1602179055506060820151816002015550505050505062000986565b600033905090565b6000600160009054906101000a900473ffffffffffffffffffffffffffffffffffffffff16905081600160006101000a81548173ffffffffffffffffffffffffffffffffffffffff021916908373ffffffffffffffffffffffffffffffffffffffff1602179055508173ffffffffffffffffffffffffffffffffffffffff168173ffffffffffffffffffffffffffffffffffffffff167f8be0079c531659141344cd1fd0a4f28419497f9722a3daafe3b4186f6b6457e060405160405180910390a35050565b61206380620050d983390190565b828054620004799062000950565b90600052602060002090601f0160209004810192826200049d5760008555620004e9565b82601f10620004b857805160ff1916838001178555620004e9565b82800160010185558215620004e9579182015b82811115620004e8578251825591602001919060010190620004cb565b5b509050620004f89190620004fc565b5090565b5b8082111562000517576000816000905550600101620004fd565b5090565b6000604051905090565b600080fd5b600080fd5b600073ffffffffffffffffffffffffffffffffffffffff82169050919050565b60006200055c826200052f565b9050919050565b6200056e816200054f565b81146200057a57600080fd5b50565b6000815190506200058e8162000563565b92915050565b600080fd5b600080fd5b6000601f19601f8301169050919050565b7f4e487b7100000000000000000000000000000000000000000000000000000000600052604160045260246000fd5b620005e9826200059e565b810181811067ffffffffffffffff821117156200060b576200060a620005af565b5b80604052505050565b6000620006206200051b565b90506200062e8282620005de565b919050565b600067ffffffffffffffff821115620006515762000650620005af565b5b6200065c826200059e565b9050602081019050919050565b60005b83811015620006895780820151818401526020810190506200066c565b8381111562000699576000848401525b50505050565b6000620006b6620006b08462000633565b62000614565b905082815260208101848484011115620006d557620006d462000599565b5b620006e284828562000669565b509392505050565b600082601f83011262000702576200070162000594565b5b8151620007148482602086016200069f565b91505092915050565b600080600080608085870312156200073a576200073962000525565b5b60006200074a878288016200057d565b945050602085015167ffffffffffffffff8111156200076e576200076d6200052a565b5b6200077c87828801620006ea565b93505060406200078f878288016200057d565b9250506060620007a2878288016200057d565b91505092959194509250565b600082825260208201905092915050565b7f4b6f6e6f68612055534443000000000000000000000000000000000000000000600082015250565b6000620007f7600b83620007ae565b91506200080482620007bf565b602082019050919050565b7f6b55534443000000000000000000000000000000000000000000000000000000600082015250565b600062000847600583620007ae565b915062000854826200080f565b602082019050919050565b6000819050919050565b600060ff82169050919050565b6000819050919050565b6000620008a16200089b62000895846200085f565b62000876565b62000869565b9050919050565b620008b38162000880565b82525050565b620008c4816200054f565b82525050565b60006080820190508181036000830152620008e581620007e8565b90508181036020830152620008fa8162000838565b90506200090b6040830185620008a8565b6200091a6060830184620008b9565b9392505050565b7f4e487b7100000000000000000000000000000000000000000000000000000000600052602260045260246000fd5b600060028204905060018216806200096957607f821691505b6020821081141562000980576200097f62000921565b5b50919050565b60805160a051614703620009d6600039600081816111c401526122540152600081816104fe015281816106db01528181610d750152818161203e0152818161219501526122ed01526147036000f3fe60806040526004361061011f5760003560e01c8063715018a6116100a0578063a720331b11610064578063a720331b146103b6578063b13bd491146103f3578063d4ddce8a1461041f578063f2fde38b1461045c578063fc0c546a146104855761011f565b8063715018a6146102ee5780637d7c2a1c1461030557806380d14b4a146103235780638b30b5161461034e5780638da5cb5b1461038b5761011f565b806327c1d7ea116100e757806327c1d7ea14610209578063380e71c714610232578063491606581461025d5780635a278fda146102865780635c975abb146102c35761011f565b80630ed10f6514610124578063116191b61461014d57806318000445146101785780631a98b2e0146101b5578063223c19f9146101de575b600080fd5b34801561013057600080fd5b5061014b6004803603810190610146919061295a565b6104b0565b005b34801561015957600080fd5b506101626104fc565b60405161016f91906129e6565b60405180910390f35b34801561018457600080fd5b5061019f600480360381019061019a9190612b47565b610520565b6040516101ac9190612ba9565b60405180910390f35b3480156101c157600080fd5b506101dc60048036038101906101d79190612cdc565b6106bd565b005b3480156101ea57600080fd5b506101f36107e8565b6040516102009190612e0d565b60405180910390f35b34801561021557600080fd5b50610230600480360381019061022b9190612e4c565b61080e565b005b34801561023e57600080fd5b5061024761084b565b6040516102549190612ba9565b60405180910390f35b34801561026957600080fd5b50610284600480360381019061027f9190612ec8565b610d57565b005b34801561029257600080fd5b506102ad60048036038101906102a89190612f91565b610e76565b6040516102ba9190612ba9565b60405180910390f35b3480156102cf57600080fd5b506102d8610ff8565b6040516102e59190612fd9565b60405180910390f35b3480156102fa57600080fd5b5061030361100f565b005b61030d611023565b60405161031a9190612fd9565b60405180910390f35b34801561032f57600080fd5b506103386111c2565b6040516103459190613015565b60405180910390f35b34801561035a57600080fd5b5061037560048036038101906103709190612f91565b6111e6565b6040516103829190612ba9565b60405180910390f35b34801561039757600080fd5b506103a06111f8565b6040516103ad919061303f565b60405180910390f35b3480156103c257600080fd5b506103dd60048036038101906103d8919061305a565b611222565b6040516103ea9190612ba9565b60405180910390f35b3480156103ff57600080fd5b50610408611247565b6040516104169291906132a2565b60405180910390f35b34801561042b57600080fd5b5061044660048036038101906104419190612f91565b611854565b6040516104539190612ba9565b60405180910390f35b34801561046857600080fd5b50610483600480360381019061047e919061295a565b61188d565b005b34801561049157600080fd5b5061049a611911565b6040516104a7919061303f565b60405180910390f35b6104b8611937565b80600560006101000a81548173ffffffffffffffffffffffffffffffffffffffff021916908373ffffffffffffffffffffffffffffffffffffffff16021790555050565b7f000000000000000000000000000000000000000000000000000000000000000081565b6000806007836040516105339190613315565b90815260200160405180910390206040518060800160405290816000820160009054906101000a900461ffff1661ffff1661ffff1681526020016000820160029054906101000a900473ffffffffffffffffffffffffffffffffffffffff1673ffffffffffffffffffffffffffffffffffffffff1673ffffffffffffffffffffffffffffffffffffffff1681526020016001820180546105d29061335b565b80601f01602080910402602001604051908101604052809291908181526020018280546105fe9061335b565b801561064b5780601f106106205761010080835404028352916020019161064b565b820191906000526020600020905b81548152906001019060200180831161062e57829003601f168201915b505050505081526020016002820160009054906101000a900473ffffffffffffffffffffffffffffffffffffffff1673ffffffffffffffffffffffffffffffffffffffff1673ffffffffffffffffffffffffffffffffffffffff168152505090506106b5816119b5565b915050919050565b600085856040516106cf9291906133bd565b604051809103902090507f000000000000000000000000000000000000000000000000000000000000000073ffffffffffffffffffffffffffffffffffffffff16631876eed98c8c8c8c8c878b8b8b6040518a63ffffffff1660e01b815260040161074299989796959493929190613423565b602060405180830381600087803b15801561075c57600080fd5b505af1158015610770573d6000803e3d6000fd5b505050506040513d601f19601f8201168201806040525081019061079491906134cb565b6107ca576040517f500c44b400000000000000000000000000000000000000000000000000000000815260040160405180910390fd5b6107db8a8a8a8a8a8a8a8a8a611a7c565b5050505050505050505050565b600460009054906101000a900473ffffffffffffffffffffffffffffffffffffffff1681565b610816611937565b806007848460405161082992919061351d565b908152602001604051809103902081816108439190613a6b565b905050505050565b6000806109f0629896806109e2600760405161086690613ac5565b90815260200160405180910390206040518060800160405290816000820160009054906101000a900461ffff1661ffff1661ffff1681526020016000820160029054906101000a900473ffffffffffffffffffffffffffffffffffffffff1673ffffffffffffffffffffffffffffffffffffffff1673ffffffffffffffffffffffffffffffffffffffff1681526020016001820180546109059061335b565b80601f01602080910402602001604051908101604052809291908181526020018280546109319061335b565b801561097e5780601f106109535761010080835404028352916020019161097e565b820191906000526020600020905b81548152906001019060200180831161096157829003601f168201915b505050505081526020016002820160009054906101000a900473ffffffffffffffffffffffffffffffffffffffff1673ffffffffffffffffffffffffffffffffffffffff1673ffffffffffffffffffffffffffffffffffffffff16815250506119b5565b611a8790919063ffffffff16565b90506000610b816007604051610a0590613b26565b90815260200160405180910390206040518060800160405290816000820160009054906101000a900461ffff1661ffff1661ffff1681526020016000820160029054906101000a900473ffffffffffffffffffffffffffffffffffffffff1673ffffffffffffffffffffffffffffffffffffffff1673ffffffffffffffffffffffffffffffffffffffff168152602001600182018054610aa49061335b565b80601f0160208091040260200160405190810160405280929190818152602001828054610ad09061335b565b8015610b1d5780601f10610af257610100808354040283529160200191610b1d565b820191906000526020600020905b815481529060010190602001808311610b0057829003601f168201915b505050505081526020016002820160009054906101000a900473ffffffffffffffffffffffffffffffffffffffff1673ffffffffffffffffffffffffffffffffffffffff1673ffffffffffffffffffffffffffffffffffffffff16815250506119b5565b90506000610d126007604051610b9690613b87565b90815260200160405180910390206040518060800160405290816000820160009054906101000a900461ffff1661ffff1661ffff1681526020016000820160029054906101000a900473ffffffffffffffffffffffffffffffffffffffff1673ffffffffffffffffffffffffffffffffffffffff1673ffffffffffffffffffffffffffffffffffffffff168152602001600182018054610c359061335b565b80601f0160208091040260200160405190810160405280929190818152602001828054610c619061335b565b8015610cae5780601f10610c8357610100808354040283529160200191610cae565b820191906000526020600020905b815481529060010190602001808311610c9157829003601f168201915b505050505081526020016002820160009054906101000a900473ffffffffffffffffffffffffffffffffffffffff1673ffffffffffffffffffffffffffffffffffffffff1673ffffffffffffffffffffffffffffffffffffffff16815250506119b5565b9050610d3981610d2b8486611a9d90919063ffffffff16565b611a9d90919063ffffffff16565b9350610d4f600385611a8790919063ffffffff16565b935050505090565b60008282604051610d699291906133bd565b604051809103902090507f000000000000000000000000000000000000000000000000000000000000000073ffffffffffffffffffffffffffffffffffffffff16635f6970c38989898989876040518763ffffffff1660e01b8152600401610dd696959493929190613b9c565b602060405180830381600087803b158015610df057600080fd5b505af1158015610e04573d6000803e3d6000fd5b505050506040513d601f19601f82011682018060405250810190610e2891906134cb565b610e5e576040517f500c44b400000000000000000000000000000000000000000000000000000000815260040160405180910390fd5b610e6c878787878787611ab3565b5050505050505050565b600060026000541415610ebe576040517f08c379a0000000000000000000000000000000000000000000000000000000008152600401610eb590613c3f565b60405180910390fd5b6002600081905550610ece611abb565b6000621092d79050610f25333085600260009054906101000a900473ffffffffffffffffffffffffffffffffffffffff1673ffffffffffffffffffffffffffffffffffffffff16611b05909392919063ffffffff16565b610f4d81610f3f620f424086611b8e90919063ffffffff16565b611a8790919063ffffffff16565b9150600460009054906101000a900473ffffffffffffffffffffffffffffffffffffffff1673ffffffffffffffffffffffffffffffffffffffff166340c10f1933846040518363ffffffff1660e01b8152600401610fac929190613c5f565b600060405180830381600087803b158015610fc657600080fd5b505af1158015610fda573d6000803e3d6000fd5b50505050610fea33836001611ba4565b506001600081905550919050565b6000600160149054906101000a900460ff16905090565b611017611937565b6110216000611e88565b565b60008060405180606001604052806201388163ffffffff1681526020016040518060400160405280600781526020017f506f6c79676f6e0000000000000000000000000000000000000000000000000081525081526020016040518060600160405280602a81526020016146a4602a913981525090506111ba6040518060400160405280600781526020017f706f6c79676f6e000000000000000000000000000000000000000000000000008152506040518060600160405280602a81526020016146a4602a9139600380546110f89061335b565b80601f01602080910402602001604051908101604052809291908181526020018280546111249061335b565b80156111715780601f1061114657610100808354040283529160200191611171565b820191906000526020600020905b81548152906001019060200180831161115457829003601f168201915b5050505050846111b560036111a7600260009054906101000a900473ffffffffffffffffffffffffffffffffffffffff16611f4e565b611a8790919063ffffffff16565b61203a565b600191505090565b7f000000000000000000000000000000000000000000000000000000000000000081565b60006111f182612387565b9050919050565b6000600160009054906101000a900473ffffffffffffffffffffffffffffffffffffffff16905090565b6008602052816000526040600020602052806000526040600020600091509150505481565b6060806040518060400160405280600481526020017f41415645000000000000000000000000000000000000000000000000000000008152508260008151811061129457611293613c88565b5b602002602001018190525061142c60076040516112b090613ac5565b90815260200160405180910390206040518060800160405290816000820160009054906101000a900461ffff1661ffff1661ffff1681526020016000820160029054906101000a900473ffffffffffffffffffffffffffffffffffffffff1673ffffffffffffffffffffffffffffffffffffffff1673ffffffffffffffffffffffffffffffffffffffff16815260200160018201805461134f9061335b565b80601f016020809104026020016040519081016040528092919081815260200182805461137b9061335b565b80156113c85780601f1061139d576101008083540402835291602001916113c8565b820191906000526020600020905b8154815290600101906020018083116113ab57829003601f168201915b505050505081526020016002820160009054906101000a900473ffffffffffffffffffffffffffffffffffffffff1673ffffffffffffffffffffffffffffffffffffffff1673ffffffffffffffffffffffffffffffffffffffff16815250506119b5565b816000815181106114405761143f613c88565b5b6020026020010181815250506040518060400160405280600881526020017f436f6d706f756e640000000000000000000000000000000000000000000000008152508260018151811061149657611495613c88565b5b602002602001018190525061162e60076040516114b290613b26565b90815260200160405180910390206040518060800160405290816000820160009054906101000a900461ffff1661ffff1661ffff1681526020016000820160029054906101000a900473ffffffffffffffffffffffffffffffffffffffff1673ffffffffffffffffffffffffffffffffffffffff1673ffffffffffffffffffffffffffffffffffffffff1681526020016001820180546115519061335b565b80601f016020809104026020016040519081016040528092919081815260200182805461157d9061335b565b80156115ca5780601f1061159f576101008083540402835291602001916115ca565b820191906000526020600020905b8154815290600101906020018083116115ad57829003601f168201915b505050505081526020016002820160009054906101000a900473ffffffffffffffffffffffffffffffffffffffff1673ffffffffffffffffffffffffffffffffffffffff1673ffffffffffffffffffffffffffffffffffffffff16815250506119b5565b8160018151811061164257611641613c88565b5b6020026020010181815250506040518060400160405280600881526020017f4d6f6f6e77656c6c0000000000000000000000000000000000000000000000008152508260028151811061169857611697613c88565b5b602002602001018190525061183060076040516116b490613b87565b90815260200160405180910390206040518060800160405290816000820160009054906101000a900461ffff1661ffff1661ffff1681526020016000820160029054906101000a900473ffffffffffffffffffffffffffffffffffffffff1673ffffffffffffffffffffffffffffffffffffffff1673ffffffffffffffffffffffffffffffffffffffff1681526020016001820180546117539061335b565b80601f016020809104026020016040519081016040528092919081815260200182805461177f9061335b565b80156117cc5780601f106117a1576101008083540402835291602001916117cc565b820191906000526020600020905b8154815290600101906020018083116117af57829003601f168201915b505050505081526020016002820160009054906101000a900473ffffffffffffffffffffffffffffffffffffffff1673ffffffffffffffffffffffffffffffffffffffff1673ffffffffffffffffffffffffffffffffffffffff16815250506119b5565b8160028151811061184457611843613c88565b5b6020026020010181815250509091565b600080621092d7905061188581611877620f424086611b8e90919063ffffffff16565b611a8790919063ffffffff16565b915050919050565b611895611937565b600073ffffffffffffffffffffffffffffffffffffffff168173ffffffffffffffffffffffffffffffffffffffff161415611905576040517f08c379a00000000000000000000000000000000000000000000000000000000081526004016118fc90613d29565b60405180910390fd5b61190e81611e88565b50565b600260009054906101000a900473ffffffffffffffffffffffffffffffffffffffff1681565b61193f612508565b73ffffffffffffffffffffffffffffffffffffffff1661195d6111f8565b73ffffffffffffffffffffffffffffffffffffffff16146119b3576040517f08c379a00000000000000000000000000000000000000000000000000000000081526004016119aa90613d95565b60405180910390fd5b565b600080600167ffffffffffffffff8111156119d3576119d2612a1c565b5b604051908082528060200260200182016040528015611a0657816020015b60608152602001906001900390816119f15790505b509050826040015181600081518110611a2257611a21613c88565b5b60200260200101819052506000611a428460000151856020015184612510565b905080600081518110611a5857611a57613c88565b5b6020026020010151806020019051810190611a739190613dca565b92505050919050565b505050505050505050565b60008183611a959190613e55565b905092915050565b60008183611aab9190613e86565b905092915050565b505050505050565b611ac3610ff8565b15611b03576040517f08c379a0000000000000000000000000000000000000000000000000000000008152600401611afa90613f28565b60405180910390fd5b565b611b88846323b872dd60e01b858585604051602401611b2693929190613f48565b604051602081830303815290604052907bffffffffffffffffffffffffffffffffffffffffffffffffffffffff19166020820180517bffffffffffffffffffffffffffffffffffffffffffffffffffffffff83818316178352505050506125cf565b50505050565b60008183611b9c9190613f7f565b905092915050565b600060086000600460009054906101000a900473ffffffffffffffffffffffffffffffffffffffff1673ffffffffffffffffffffffffffffffffffffffff1673ffffffffffffffffffffffffffffffffffffffff16815260200190815260200160002060008573ffffffffffffffffffffffffffffffffffffffff1673ffffffffffffffffffffffffffffffffffffffff1681526020019081526020016000205490508115611d0757611c608382611a9d90919063ffffffff16565b60086000600460009054906101000a900473ffffffffffffffffffffffffffffffffffffffff1673ffffffffffffffffffffffffffffffffffffffff1673ffffffffffffffffffffffffffffffffffffffff16815260200190815260200160002060008673ffffffffffffffffffffffffffffffffffffffff1673ffffffffffffffffffffffffffffffffffffffff16815260200190815260200160002081905550611e82565b6000611d1c848361269690919063ffffffff16565b1115611ddc57611d35838261269690919063ffffffff16565b60086000600460009054906101000a900473ffffffffffffffffffffffffffffffffffffffff1673ffffffffffffffffffffffffffffffffffffffff1673ffffffffffffffffffffffffffffffffffffffff16815260200190815260200160002060008673ffffffffffffffffffffffffffffffffffffffff1673ffffffffffffffffffffffffffffffffffffffff16815260200190815260200160002081905550611e81565b600060086000600460009054906101000a900473ffffffffffffffffffffffffffffffffffffffff1673ffffffffffffffffffffffffffffffffffffffff1673ffffffffffffffffffffffffffffffffffffffff16815260200190815260200160002060008673ffffffffffffffffffffffffffffffffffffffff1673ffffffffffffffffffffffffffffffffffffffff168152602001908152602001600020819055505b5b50505050565b6000600160009054906101000a900473ffffffffffffffffffffffffffffffffffffffff16905081600160006101000a81548173ffffffffffffffffffffffffffffffffffffffff021916908373ffffffffffffffffffffffffffffffffffffffff1602179055508173ffffffffffffffffffffffffffffffffffffffff168173ffffffffffffffffffffffffffffffffffffffff167f8be0079c531659141344cd1fd0a4f28419497f9722a3daafe3b4186f6b6457e060405160405180910390a35050565b60008060008373ffffffffffffffffffffffffffffffffffffffff166370a0823130604051602401611f80919061303f565b6040516020818303038152906040529060e01b6020820180517bffffffffffffffffffffffffffffffffffffffffffffffffffffffff8381831617835250505050604051611fce9190614015565b600060405180830381855afa9150503d8060008114612009576040519150601f19603f3d011682016040523d82523d6000602084013e61200e565b606091505b50915091508161201d57600080fd5b808060200190518101906120319190613dca565b92505050919050565b60007f000000000000000000000000000000000000000000000000000000000000000073ffffffffffffffffffffffffffffffffffffffff1663935b13f6856040518263ffffffff1660e01b81526004016120959190614065565b60206040518083038186803b1580156120ad57600080fd5b505afa1580156120c1573d6000803e3d6000fd5b505050506040513d601f19601f820116820180604052508101906120e5919061409c565b90508073ffffffffffffffffffffffffffffffffffffffff166323b872dd3330856040518463ffffffff1660e01b815260040161212493929190613f48565b602060405180830381600087803b15801561213e57600080fd5b505af1158015612152573d6000803e3d6000fd5b505050506040513d601f19601f8201168201806040525081019061217691906134cb565b508073ffffffffffffffffffffffffffffffffffffffff1663095ea7b37f0000000000000000000000000000000000000000000000000000000000000000846040518363ffffffff1660e01b81526004016121d2929190613c5f565b602060405180830381600087803b1580156121ec57600080fd5b505af1158015612200573d6000803e3d6000fd5b505050506040513d601f19601f8201168201806040525081019061222491906134cb565b50600083604051602001612238919061413f565b604051602081830303815290604052905060003411156122eb577f000000000000000000000000000000000000000000000000000000000000000073ffffffffffffffffffffffffffffffffffffffff1663c62c200234308a8a868b8a336040518963ffffffff1660e01b81526004016122b897969594939291906141ab565b6000604051808303818588803b1580156122d157600080fd5b505af11580156122e5573d6000803e3d6000fd5b50505050505b7f000000000000000000000000000000000000000000000000000000000000000073ffffffffffffffffffffffffffffffffffffffff1663b541708488888489886040518663ffffffff1660e01b815260040161234c959493929190614236565b600060405180830381600087803b15801561236657600080fd5b505af115801561237a573d6000803e3d6000fd5b5050505050505050505050565b6000600260005414156123cf576040517f08c379a00000000000000000000000000000000000000000000000000000000081526004016123c690613c3f565b60405180910390fd5b6002600081905550600082146124fb5760006210b9e7905061240f620f42406124018386611b8e90919063ffffffff16565b611a8790919063ffffffff16565b9150600460009054906101000a900473ffffffffffffffffffffffffffffffffffffffff1673ffffffffffffffffffffffffffffffffffffffff16639dc29fac33856040518363ffffffff1660e01b815260040161246e929190613c5f565b600060405180830381600087803b15801561248857600080fd5b505af115801561249c573d6000803e3d6000fd5b505050506124ed3383600260009054906101000a900473ffffffffffffffffffffffffffffffffffffffff1673ffffffffffffffffffffffffffffffffffffffff166126ac9092919063ffffffff16565b6124f933836000611ba4565b505b6001600081905550919050565b600033905090565b6060600560009054906101000a900473ffffffffffffffffffffffffffffffffffffffff1673ffffffffffffffffffffffffffffffffffffffff1663272c144a8585856040518463ffffffff1660e01b8152600401612571939291906142d6565b60006040518083038186803b15801561258957600080fd5b505afa15801561259d573d6000803e3d6000fd5b505050506040513d6000823e3d601f19601f820116820180604052508101906125c69190614496565b90509392505050565b6000612631826040518060400160405280602081526020017f5361666545524332303a206c6f772d6c6576656c2063616c6c206661696c65648152508573ffffffffffffffffffffffffffffffffffffffff166127329092919063ffffffff16565b9050600081511115612691578080602001905181019061265191906134cb565b612690576040517f08c379a000000000000000000000000000000000000000000000000000000000815260040161268790614551565b60405180910390fd5b5b505050565b600081836126a49190614571565b905092915050565b61272d8363a9059cbb60e01b84846040516024016126cb929190613c5f565b604051602081830303815290604052907bffffffffffffffffffffffffffffffffffffffffffffffffffffffff19166020820180517bffffffffffffffffffffffffffffffffffffffffffffffffffffffff83818316178352505050506125cf565b505050565b6060612741848460008561274a565b90509392505050565b60608247101561278f576040517f08c379a000000000000000000000000000000000000000000000000000000000815260040161278690614617565b60405180910390fd5b6127988561285e565b6127d7576040517f08c379a00000000000000000000000000000000000000000000000000000000081526004016127ce90614683565b60405180910390fd5b6000808673ffffffffffffffffffffffffffffffffffffffff1685876040516128009190614015565b60006040518083038185875af1925050503d806000811461283d576040519150601f19603f3d011682016040523d82523d6000602084013e612842565b606091505b5091509150612852828286612881565b92505050949350505050565b6000808273ffffffffffffffffffffffffffffffffffffffff163b119050919050565b60608315612891578290506128e1565b6000835111156128a45782518084602001fd5b816040517f08c379a00000000000000000000000000000000000000000000000000000000081526004016128d89190614065565b60405180910390fd5b9392505050565b6000604051905090565b600080fd5b600080fd5b600073ffffffffffffffffffffffffffffffffffffffff82169050919050565b6000612927826128fc565b9050919050565b6129378161291c565b811461294257600080fd5b50565b6000813590506129548161292e565b92915050565b6000602082840312156129705761296f6128f2565b5b600061297e84828501612945565b91505092915050565b6000819050919050565b60006129ac6129a76129a2846128fc565b612987565b6128fc565b9050919050565b60006129be82612991565b9050919050565b60006129d0826129b3565b9050919050565b6129e0816129c5565b82525050565b60006020820190506129fb60008301846129d7565b92915050565b600080fd5b600080fd5b6000601f19601f8301169050919050565b7f4e487b7100000000000000000000000000000000000000000000000000000000600052604160045260246000fd5b612a5482612a0b565b810181811067ffffffffffffffff82111715612a7357612a72612a1c565b5b80604052505050565b6000612a866128e8565b9050612a928282612a4b565b919050565b600067ffffffffffffffff821115612ab257612ab1612a1c565b5b612abb82612a0b565b9050602081019050919050565b82818337600083830152505050565b6000612aea612ae584612a97565b612a7c565b905082815260208101848484011115612b0657612b05612a06565b5b612b11848285612ac8565b509392505050565b600082601f830112612b2e57612b2d612a01565b5b8135612b3e848260208601612ad7565b91505092915050565b600060208284031215612b5d57612b5c6128f2565b5b600082013567ffffffffffffffff811115612b7b57612b7a6128f7565b5b612b8784828501612b19565b91505092915050565b6000819050919050565b612ba381612b90565b82525050565b6000602082019050612bbe6000830184612b9a565b92915050565b6000819050919050565b612bd781612bc4565b8114612be257600080fd5b50565b600081359050612bf481612bce565b92915050565b600080fd5b600080fd5b60008083601f840112612c1a57612c19612a01565b5b8235905067ffffffffffffffff811115612c3757612c36612bfa565b5b602083019150836001820283011115612c5357612c52612bff565b5b9250929050565b60008083601f840112612c7057612c6f612a01565b5b8235905067ffffffffffffffff811115612c8d57612c8c612bfa565b5b602083019150836001820283011115612ca957612ca8612bff565b5b9250929050565b612cb981612b90565b8114612cc457600080fd5b50565b600081359050612cd681612cb0565b92915050565b60008060008060008060008060008060c08b8d031215612cff57612cfe6128f2565b5b6000612d0d8d828e01612be5565b9a505060208b013567ffffffffffffffff811115612d2e57612d2d6128f7565b5b612d3a8d828e01612c04565b995099505060408b013567ffffffffffffffff811115612d5d57612d5c6128f7565b5b612d698d828e01612c04565b975097505060608b013567ffffffffffffffff811115612d8c57612d8b6128f7565b5b612d988d828e01612c5a565b955095505060808b013567ffffffffffffffff811115612dbb57612dba6128f7565b5b612dc78d828e01612c04565b935093505060a0612dda8d828e01612cc7565b9150509295989b9194979a5092959850565b6000612df7826129b3565b9050919050565b612e0781612dec565b82525050565b6000602082019050612e226000830184612dfe565b92915050565b600080fd5b600060808284031215612e4357612e42612e28565b5b81905092915050565b600080600060408486031215612e6557612e646128f2565b5b600084013567ffffffffffffffff811115612e8357612e826128f7565b5b612e8f86828701612c04565b9350935050602084013567ffffffffffffffff811115612eb257612eb16128f7565b5b612ebe86828701612e2d565b9150509250925092565b60008060008060008060006080888a031215612ee757612ee66128f2565b5b6000612ef58a828b01612be5565b975050602088013567ffffffffffffffff811115612f1657612f156128f7565b5b612f228a828b01612c04565b9650965050604088013567ffffffffffffffff811115612f4557612f446128f7565b5b612f518a828b01612c04565b9450945050606088013567ffffffffffffffff811115612f7457612f736128f7565b5b612f808a828b01612c5a565b925092505092959891949750929550565b600060208284031215612fa757612fa66128f2565b5b6000612fb584828501612cc7565b91505092915050565b60008115159050919050565b612fd381612fbe565b82525050565b6000602082019050612fee6000830184612fca565b92915050565b6000612fff826129b3565b9050919050565b61300f81612ff4565b82525050565b600060208201905061302a6000830184613006565b92915050565b6130398161291c565b82525050565b60006020820190506130546000830184613030565b92915050565b60008060408385031215613071576130706128f2565b5b600061307f85828601612945565b925050602061309085828601612945565b9150509250929050565b600081519050919050565b600082825260208201905092915050565b6000819050602082019050919050565b600081519050919050565b600082825260208201905092915050565b60005b838110156131005780820151818401526020810190506130e5565b8381111561310f576000848401525b50505050565b6000613120826130c6565b61312a81856130d1565b935061313a8185602086016130e2565b61314381612a0b565b840191505092915050565b600061315a8383613115565b905092915050565b6000602082019050919050565b600061317a8261309a565b61318481856130a5565b935083602082028501613196856130b6565b8060005b858110156131d257848403895281516131b3858261314e565b94506131be83613162565b925060208a0199505060018101905061319a565b50829750879550505050505092915050565b600081519050919050565b600082825260208201905092915050565b6000819050602082019050919050565b61321981612b90565b82525050565b600061322b8383613210565b60208301905092915050565b6000602082019050919050565b600061324f826131e4565b61325981856131ef565b935061326483613200565b8060005b8381101561329557815161327c888261321f565b975061328783613237565b925050600181019050613268565b5085935050505092915050565b600060408201905081810360008301526132bc818561316f565b905081810360208301526132d08184613244565b90509392505050565b600081905092915050565b60006132ef826130c6565b6132f981856132d9565b93506133098185602086016130e2565b80840191505092915050565b600061332182846132e4565b915081905092915050565b7f4e487b7100000000000000000000000000000000000000000000000000000000600052602260045260246000fd5b6000600282049050600182168061337357607f821691505b602082108114156133875761338661332c565b5b50919050565b600081905092915050565b60006133a4838561338d565b93506133b1838584612ac8565b82840190509392505050565b60006133ca828486613398565b91508190509392505050565b6133df81612bc4565b82525050565b600082825260208201905092915050565b600061340283856133e5565b935061340f838584612ac8565b61341883612a0b565b840190509392505050565b600060c082019050613438600083018c6133d6565b818103602083015261344b818a8c6133f6565b9050818103604083015261346081888a6133f6565b905061346f60608301876133d6565b81810360808301526134828185876133f6565b905061349160a0830184612b9a565b9a9950505050505050505050565b6134a881612fbe565b81146134b357600080fd5b50565b6000815190506134c58161349f565b92915050565b6000602082840312156134e1576134e06128f2565b5b60006134ef848285016134b6565b91505092915050565b600061350483856132d9565b9350613511838584612ac8565b82840190509392505050565b600061352a8284866134f8565b91508190509392505050565b600061ffff82169050919050565b61354d81613536565b811461355857600080fd5b50565b6000813561356881613544565b80915050919050565b60008160001b9050919050565b600061ffff61358c84613571565b9350801983169250808416831791505092915050565b60006135bd6135b86135b384613536565b612987565b613536565b9050919050565b6000819050919050565b6135d7826135a2565b6135ea6135e3826135c4565b835461357e565b8255505050565b600081356135fe8161292e565b80915050919050565b60008160101b9050919050565b600075ffffffffffffffffffffffffffffffffffffffff000061363684613607565b9350801983169250808416831791505092915050565b6000613657826129b3565b9050919050565b6000819050919050565b6136718261364c565b61368461367d8261365e565b8354613614565b8255505050565b600080fd5b600080fd5b600080fd5b600080833560016020038436030381126136b7576136b661368b565b5b80840192508235915067ffffffffffffffff8211156136d9576136d8613690565b5b6020830192506001820236038313156136f5576136f4613695565b5b509250929050565b600082905092915050565b60008190508160005260206000209050919050565b60006020601f8301049050919050565b600082821b905092915050565b60006008830261376a7fffffffffffffffffffffffffffffffffffffffffffffffffffffffffffffffff8261372d565b613774868361372d565b95508019841693508086168417925050509392505050565b60006137a76137a261379d84612b90565b612987565b612b90565b9050919050565b6000819050919050565b6137c18361378c565b6137d56137cd826137ae565b84845461373a565b825550505050565b600090565b6137ea6137dd565b6137f58184846137b8565b505050565b5b818110156138195761380e6000826137e2565b6001810190506137fb565b5050565b601f82111561385e5761382f81613708565b6138388461371d565b81016020851015613847578190505b61385b6138538561371d565b8301826137fa565b50505b505050565b600082821c905092915050565b600061388160001984600802613863565b1980831691505092915050565b600061389a8383613870565b9150826002028217905092915050565b6138b483836136fd565b67ffffffffffffffff8111156138cd576138cc612a1c565b5b6138d7825461335b565b6138e282828561381d565b6000601f83116001811461391157600084156138ff578287013590505b613909858261388e565b865550613971565b601f19841661391f86613708565b60005b8281101561394757848901358255600182019150602085019450602081019050613922565b868310156139645784890135613960601f891682613870565b8355505b6001600288020188555050505b50505050505050565b6139858383836138aa565b505050565b600073ffffffffffffffffffffffffffffffffffffffff6139aa84613571565b9350801983169250808416831791505092915050565b6139c98261364c565b6139dc6139d58261365e565b835461398a565b8255505050565b6000810160008301806139f58161355b565b9050613a0181846135ce565b505050600081016020830180613a16816135f1565b9050613a228184613668565b5050506001810160408301613a37818561369a565b613a4281838661397a565b50505050600281016060830180613a58816135f1565b9050613a6481846139c0565b5050505050565b613a7582826139e3565b5050565b7f4141564500000000000000000000000000000000000000000000000000000000600082015250565b6000613aaf6004836132d9565b9150613aba82613a79565b600482019050919050565b6000613ad082613aa2565b9150819050919050565b7f436f6d706f756e64000000000000000000000000000000000000000000000000600082015250565b6000613b106008836132d9565b9150613b1b82613ada565b600882019050919050565b6000613b3182613b03565b9150819050919050565b7f4d6f6f6e77656c6c000000000000000000000000000000000000000000000000600082015250565b6000613b716008836132d9565b9150613b7c82613b3b565b600882019050919050565b6000613b9282613b64565b9150819050919050565b6000608082019050613bb160008301896133d6565b8181036020830152613bc48187896133f6565b90508181036040830152613bd98185876133f6565b9050613be860608301846133d6565b979650505050505050565b7f5265656e7472616e637947756172643a207265656e7472616e742063616c6c00600082015250565b6000613c29601f836133e5565b9150613c3482613bf3565b602082019050919050565b60006020820190508181036000830152613c5881613c1c565b9050919050565b6000604082019050613c746000830185613030565b613c816020830184612b9a565b9392505050565b7f4e487b7100000000000000000000000000000000000000000000000000000000600052603260045260246000fd5b7f4f776e61626c653a206e6577206f776e657220697320746865207a65726f206160008201527f6464726573730000000000000000000000000000000000000000000000000000602082015250565b6000613d136026836133e5565b9150613d1e82613cb7565b604082019050919050565b60006020820190508181036000830152613d4281613d06565b9050919050565b7f4f776e61626c653a2063616c6c6572206973206e6f7420746865206f776e6572600082015250565b6000613d7f6020836133e5565b9150613d8a82613d49565b602082019050919050565b60006020820190508181036000830152613dae81613d72565b9050919050565b600081519050613dc481612cb0565b92915050565b600060208284031215613de057613ddf6128f2565b5b6000613dee84828501613db5565b91505092915050565b7f4e487b7100000000000000000000000000000000000000000000000000000000600052601260045260246000fd5b7f4e487b7100000000000000000000000000000000000000000000000000000000600052601160045260246000fd5b6000613e6082612b90565b9150613e6b83612b90565b925082613e7b57613e7a613df7565b5b828204905092915050565b6000613e9182612b90565b9150613e9c83612b90565b9250827fffffffffffffffffffffffffffffffffffffffffffffffffffffffffffffffff03821115613ed157613ed0613e26565b5b828201905092915050565b7f5061757361626c653a2070617573656400000000000000000000000000000000600082015250565b6000613f126010836133e5565b9150613f1d82613edc565b602082019050919050565b60006020820190508181036000830152613f4181613f05565b9050919050565b6000606082019050613f5d6000830186613030565b613f6a6020830185613030565b613f776040830184612b9a565b949350505050565b6000613f8a82612b90565b9150613f9583612b90565b9250817fffffffffffffffffffffffffffffffffffffffffffffffffffffffffffffffff0483118215151615613fce57613fcd613e26565b5b828202905092915050565b600081519050919050565b6000613fef82613fd9565b613ff9818561338d565b93506140098185602086016130e2565b80840191505092915050565b60006140218284613fe4565b915081905092915050565b6000614037826130c6565b61404181856133e5565b93506140518185602086016130e2565b61405a81612a0b565b840191505092915050565b6000602082019050818103600083015261407f818461402c565b905092915050565b6000815190506140968161292e565b92915050565b6000602082840312156140b2576140b16128f2565b5b60006140c084828501614087565b91505092915050565b600063ffffffff82169050919050565b6140e2816140c9565b82525050565b600060608301600083015161410060008601826140d9565b50602083015184820360208601526141188282613115565b915050604083015184820360408601526141328282613115565b9150508091505092915050565b6000602082019050818103600083015261415981846140e8565b905092915050565b600082825260208201905092915050565b600061417d82613fd9565b6141878185614161565b93506141978185602086016130e2565b6141a081612a0b565b840191505092915050565b600060e0820190506141c0600083018a613030565b81810360208301526141d2818961402c565b905081810360408301526141e6818861402c565b905081810360608301526141fa8187614172565b9050818103608083015261420e818661402c565b905061421d60a0830185612b9a565b61422a60c0830184613030565b98975050505050505050565b600060a0820190508181036000830152614250818861402c565b90508181036020830152614264818761402c565b905081810360408301526142788186614172565b9050818103606083015261428c818561402c565b905061429b6080830184612b9a565b9695505050505050565b60006142c06142bb6142b684613536565b612987565b6140c9565b9050919050565b6142d0816142a5565b82525050565b60006060820190506142eb60008301866142c7565b6142f86020830185613030565b818103604083015261430a818461316f565b9050949350505050565b600067ffffffffffffffff82111561432f5761432e612a1c565b5b602082029050602081019050919050565b600067ffffffffffffffff82111561435b5761435a612a1c565b5b61436482612a0b565b9050602081019050919050565b600061438461437f84614340565b612a7c565b9050828152602081018484840111156143a05761439f612a06565b5b6143ab8482856130e2565b509392505050565b600082601f8301126143c8576143c7612a01565b5b81516143d8848260208601614371565b91505092915050565b60006143f46143ef84614314565b612a7c565b9050808382526020820190506020840283018581111561441757614416612bff565b5b835b8181101561445e57805167ffffffffffffffff81111561443c5761443b612a01565b5b80860161444989826143b3565b85526020850194505050602081019050614419565b5050509392505050565b600082601f83011261447d5761447c612a01565b5b815161448d8482602086016143e1565b91505092915050565b6000602082840312156144ac576144ab6128f2565b5b600082015167ffffffffffffffff8111156144ca576144c96128f7565b5b6144d684828501614468565b91505092915050565b7f5361666545524332303a204552433230206f7065726174696f6e20646964206e60008201527f6f74207375636365656400000000000000000000000000000000000000000000602082015250565b600061453b602a836133e5565b9150614546826144df565b604082019050919050565b6000602082019050818103600083015261456a8161452e565b9050919050565b600061457c82612b90565b915061458783612b90565b92508282101561459a57614599613e26565b5b828203905092915050565b7f416464726573733a20696e73756666696369656e742062616c616e636520666f60008201527f722063616c6c0000000000000000000000000000000000000000000000000000602082015250565b60006146016026836133e5565b915061460c826145a5565b604082019050919050565b60006020820190508181036000830152614630816145f4565b9050919050565b7f416464726573733a2063616c6c20746f206e6f6e2d636f6e7472616374000000600082015250565b600061466d601d836133e5565b915061467882614637565b602082019050919050565b6000602082019050818103600083015261469c81614660565b905091905056fe307830333245634465333146373734453735663034314142466542463932663932326535304530353133a264697066735822122069880fdb8e5d2233743e186c1962c52e0206f30382368d5bdb16fd90eba8626564736f6c6343000809003360e06040523480156200001157600080fd5b5060405162002063380380620020638339818101604052810190620000379190620003bf565b8383816003908051906020019062000051929190620000cf565b5080600490805190602001906200006a929190620000cf565b5050508160ff1660808160ff168152505081600a6200008a9190620005fc565b60a081815250508073ffffffffffffffffffffffffffffffffffffffff1660c08173ffffffffffffffffffffffffffffffffffffffff168152505050505050620006b2565b828054620000dd906200067c565b90600052602060002090601f0160209004810192826200010157600085556200014d565b82601f106200011c57805160ff19168380011785556200014d565b828001600101855582156200014d579182015b828111156200014c5782518255916020019190600101906200012f565b5b5090506200015c919062000160565b5090565b5b808211156200017b57600081600090555060010162000161565b5090565b6000604051905090565b600080fd5b600080fd5b600080fd5b600080fd5b6000601f19601f8301169050919050565b7f4e487b7100000000000000000000000000000000000000000000000000000000600052604160045260246000fd5b620001e8826200019d565b810181811067ffffffffffffffff821117156200020a5762000209620001ae565b5b80604052505050565b60006200021f6200017f565b90506200022d8282620001dd565b919050565b600067ffffffffffffffff82111562000250576200024f620001ae565b5b6200025b826200019d565b9050602081019050919050565b60005b83811015620002885780820151818401526020810190506200026b565b8381111562000298576000848401525b50505050565b6000620002b5620002af8462000232565b62000213565b905082815260208101848484011115620002d457620002d362000198565b5b620002e184828562000268565b509392505050565b600082601f83011262000301576200030062000193565b5b8151620003138482602086016200029e565b91505092915050565b600060ff82169050919050565b62000334816200031c565b81146200034057600080fd5b50565b600081519050620003548162000329565b92915050565b600073ffffffffffffffffffffffffffffffffffffffff82169050919050565b600062000387826200035a565b9050919050565b62000399816200037a565b8114620003a557600080fd5b50565b600081519050620003b9816200038e565b92915050565b60008060008060808587031215620003dc57620003db62000189565b5b600085015167ffffffffffffffff811115620003fd57620003fc6200018e565b5b6200040b87828801620002e9565b945050602085015167ffffffffffffffff8111156200042f576200042e6200018e565b5b6200043d87828801620002e9565b9350506040620004508782880162000343565b92505060606200046387828801620003a8565b91505092959194509250565b7f4e487b7100000000000000000000000000000000000000000000000000000000600052601160045260246000fd5b60008160011c9050919050565b6000808291508390505b6001851115620004fd57808604811115620004d557620004d46200046f565b5b6001851615620004e55780820291505b8081029050620004f5856200049e565b9450620004b5565b94509492505050565b600082620005185760019050620005eb565b81620005285760009050620005eb565b81600181146200054157600281146200054c5762000582565b6001915050620005eb565b60ff8411156200056157620005606200046f565b5b8360020a9150848211156200057b576200057a6200046f565b5b50620005eb565b5060208310610133831016604e8410600b8410161715620005bc5782820a905083811115620005b657620005b56200046f565b5b620005eb565b620005cb8484846001620004ab565b92509050818404811115620005e557620005e46200046f565b5b81810290505b9392505050565b6000819050919050565b60006200060982620005f2565b915062000616836200031c565b9250620006457fffffffffffffffffffffffffffffffffffffffffffffffffffffffffffffffff848462000506565b905092915050565b7f4e487b7100000000000000000000000000000000000000000000000000000000600052602260045260246000fd5b600060028204905060018216806200069557607f821691505b60208210811415620006ac57620006ab6200064d565b5b50919050565b60805160a05160c05161197d620006e660003960008181610544015261070101526000505060006103ff015261197d6000f3fe608060405234801561001057600080fd5b50600436106100ea5760003560e01c806370a082311161008c578063a457c2d711610066578063a457c2d71461025f578063a9059cbb1461028f578063dd62ed3e146102bf578063fbfa77cf146102ef576100ea565b806370a08231146101f557806395d89b41146102255780639dc29fac14610243576100ea565b806323b872dd116100c857806323b872dd1461015b578063313ce5671461018b57806339509351146101a957806340c10f19146101d9576100ea565b806306fdde03146100ef578063095ea7b31461010d57806318160ddd1461013d575b600080fd5b6100f761030d565b6040516101049190610fdd565b60405180910390f35b61012760048036038101906101229190611098565b61039f565b60405161013491906110f3565b60405180910390f35b6101456103c2565b604051610152919061111d565b60405180910390f35b61017560048036038101906101709190611138565b6103cc565b60405161018291906110f3565b60405180910390f35b6101936103fb565b6040516101a091906111a7565b60405180910390f35b6101c360048036038101906101be9190611098565b610423565b6040516101d091906110f3565b60405180910390f35b6101f360048036038101906101ee9190611098565b61045a565b005b61020f600480360381019061020a91906111c2565b610468565b60405161021c919061111d565b60405180910390f35b61022d6104b0565b60405161023a9190610fdd565b60405180910390f35b61025d60048036038101906102589190611098565b610542565b005b61027960048036038101906102749190611098565b6105de565b60405161028691906110f3565b60405180910390f35b6102a960048036038101906102a49190611098565b610655565b6040516102b691906110f3565b60405180910390f35b6102d960048036038101906102d491906111ef565b610678565b6040516102e6919061111d565b60405180910390f35b6102f76106ff565b604051610304919061123e565b60405180910390f35b60606003805461031c90611288565b80601f016020809104026020016040519081016040528092919081815260200182805461034890611288565b80156103955780601f1061036a57610100808354040283529160200191610395565b820191906000526020600020905b81548152906001019060200180831161037857829003601f168201915b5050505050905090565b6000806103aa610723565b90506103b781858561072b565b600191505092915050565b6000600254905090565b6000806103d7610723565b90506103e48582856108f6565b6103ef858585610982565b60019150509392505050565b60007f0000000000000000000000000000000000000000000000000000000000000000905090565b60008061042e610723565b905061044f8185856104408589610678565b61044a91906112e9565b61072b565b600191505092915050565b6104648282610c03565b5050565b60008060008373ffffffffffffffffffffffffffffffffffffffff1673ffffffffffffffffffffffffffffffffffffffff168152602001908152602001600020549050919050565b6060600480546104bf90611288565b80601f01602080910402602001604051908101604052809291908181526020018280546104eb90611288565b80156105385780601f1061050d57610100808354040283529160200191610538565b820191906000526020600020905b81548152906001019060200180831161051b57829003601f168201915b5050505050905090565b7f000000000000000000000000000000000000000000000000000000000000000073ffffffffffffffffffffffffffffffffffffffff163373ffffffffffffffffffffffffffffffffffffffff16146105d0576040517f08c379a00000000000000000000000000000000000000000000000000000000081526004016105c79061138b565b60405180910390fd5b6105da8282610d63565b5050565b6000806105e9610723565b905060006105f78286610678565b90508381101561063c576040517f08c379a00000000000000000000000000000000000000000000000000000000081526004016106339061141d565b60405180910390fd5b610649828686840361072b565b60019250505092915050565b600080610660610723565b905061066d818585610982565b600191505092915050565b6000600160008473ffffffffffffffffffffffffffffffffffffffff1673ffffffffffffffffffffffffffffffffffffffff16815260200190815260200160002060008373ffffffffffffffffffffffffffffffffffffffff1673ffffffffffffffffffffffffffffffffffffffff16815260200190815260200160002054905092915050565b7f000000000000000000000000000000000000000000000000000000000000000081565b600033905090565b600073ffffffffffffffffffffffffffffffffffffffff168373ffffffffffffffffffffffffffffffffffffffff16141561079b576040517f08c379a0000000000000000000000000000000000000000000000000000000008152600401610792906114af565b60405180910390fd5b600073ffffffffffffffffffffffffffffffffffffffff168273ffffffffffffffffffffffffffffffffffffffff16141561080b576040517f08c379a000000000000000000000000000000000000000000000000000000000815260040161080290611541565b60405180910390fd5b80600160008573ffffffffffffffffffffffffffffffffffffffff1673ffffffffffffffffffffffffffffffffffffffff16815260200190815260200160002060008473ffffffffffffffffffffffffffffffffffffffff1673ffffffffffffffffffffffffffffffffffffffff168152602001908152602001600020819055508173ffffffffffffffffffffffffffffffffffffffff168373ffffffffffffffffffffffffffffffffffffffff167f8c5be1e5ebec7d5bd14f71427d1e84f3dd0314c0f7b2291e5b200ac8c7c3b925836040516108e9919061111d565b60405180910390a3505050565b60006109028484610678565b90507fffffffffffffffffffffffffffffffffffffffffffffffffffffffffffffffff811461097c578181101561096e576040517f08c379a0000000000000000000000000000000000000000000000000000000008152600401610965906115ad565b60405180910390fd5b61097b848484840361072b565b5b50505050565b600073ffffffffffffffffffffffffffffffffffffffff168373ffffffffffffffffffffffffffffffffffffffff1614156109f2576040517f08c379a00000000000000000000000000000000000000000000000000000000081526004016109e99061163f565b60405180910390fd5b600073ffffffffffffffffffffffffffffffffffffffff168273ffffffffffffffffffffffffffffffffffffffff161415610a62576040517f08c379a0000000000000000000000000000000000000000000000000000000008152600401610a59906116d1565b60405180910390fd5b610a6d838383610f3a565b60008060008573ffffffffffffffffffffffffffffffffffffffff1673ffffffffffffffffffffffffffffffffffffffff16815260200190815260200160002054905081811015610af3576040517f08c379a0000000000000000000000000000000000000000000000000000000008152600401610aea90611763565b60405180910390fd5b8181036000808673ffffffffffffffffffffffffffffffffffffffff1673ffffffffffffffffffffffffffffffffffffffff16815260200190815260200160002081905550816000808573ffffffffffffffffffffffffffffffffffffffff1673ffffffffffffffffffffffffffffffffffffffff1681526020019081526020016000206000828254610b8691906112e9565b925050819055508273ffffffffffffffffffffffffffffffffffffffff168473ffffffffffffffffffffffffffffffffffffffff167fddf252ad1be2c89b69c2b068fc378daa952ba7f163c4a11628f55a4df523b3ef84604051610bea919061111d565b60405180910390a3610bfd848484610f3f565b50505050565b600073ffffffffffffffffffffffffffffffffffffffff168273ffffffffffffffffffffffffffffffffffffffff161415610c73576040517f08c379a0000000000000000000000000000000000000000000000000000000008152600401610c6a906117cf565b60405180910390fd5b610c7f60008383610f3a565b8060026000828254610c9191906112e9565b92505081905550806000808473ffffffffffffffffffffffffffffffffffffffff1673ffffffffffffffffffffffffffffffffffffffff1681526020019081526020016000206000828254610ce691906112e9565b925050819055508173ffffffffffffffffffffffffffffffffffffffff16600073ffffffffffffffffffffffffffffffffffffffff167fddf252ad1be2c89b69c2b068fc378daa952ba7f163c4a11628f55a4df523b3ef83604051610d4b919061111d565b60405180910390a3610d5f60008383610f3f565b5050565b600073ffffffffffffffffffffffffffffffffffffffff168273ffffffffffffffffffffffffffffffffffffffff161415610dd3576040517f08c379a0000000000000000000000000000000000000000000000000000000008152600401610dca90611861565b60405180910390fd5b610ddf82600083610f3a565b60008060008473ffffffffffffffffffffffffffffffffffffffff1673ffffffffffffffffffffffffffffffffffffffff16815260200190815260200160002054905081811015610e65576040517f08c379a0000000000000000000000000000000000000000000000000000000008152600401610e5c906118f3565b60405180910390fd5b8181036000808573ffffffffffffffffffffffffffffffffffffffff1673ffffffffffffffffffffffffffffffffffffffff168152602001908152602001600020819055508160026000828254610ebc9190611913565b92505081905550600073ffffffffffffffffffffffffffffffffffffffff168373ffffffffffffffffffffffffffffffffffffffff167fddf252ad1be2c89b69c2b068fc378daa952ba7f163c4a11628f55a4df523b3ef84604051610f21919061111d565b60405180910390a3610f3583600084610f3f565b505050565b505050565b505050565b600081519050919050565b600082825260208201905092915050565b60005b83811015610f7e578082015181840152602081019050610f63565b83811115610f8d576000848401525b50505050565b6000601f19601f8301169050919050565b6000610faf82610f44565b610fb98185610f4f565b9350610fc9818560208601610f60565b610fd281610f93565b840191505092915050565b60006020820190508181036000830152610ff78184610fa4565b905092915050565b600080fd5b600073ffffffffffffffffffffffffffffffffffffffff82169050919050565b600061102f82611004565b9050919050565b61103f81611024565b811461104a57600080fd5b50565b60008135905061105c81611036565b92915050565b6000819050919050565b61107581611062565b811461108057600080fd5b50565b6000813590506110928161106c565b92915050565b600080604083850312156110af576110ae610fff565b5b60006110bd8582860161104d565b92505060206110ce85828601611083565b9150509250929050565b60008115159050919050565b6110ed816110d8565b82525050565b600060208201905061110860008301846110e4565b92915050565b61111781611062565b82525050565b6000602082019050611132600083018461110e565b92915050565b60008060006060848603121561115157611150610fff565b5b600061115f8682870161104d565b93505060206111708682870161104d565b925050604061118186828701611083565b9150509250925092565b600060ff82169050919050565b6111a18161118b565b82525050565b60006020820190506111bc6000830184611198565b92915050565b6000602082840312156111d8576111d7610fff565b5b60006111e68482850161104d565b91505092915050565b6000806040838503121561120657611205610fff565b5b60006112148582860161104d565b92505060206112258582860161104d565b9150509250929050565b61123881611024565b82525050565b6000602082019050611253600083018461122f565b92915050565b7f4e487b7100000000000000000000000000000000000000000000000000000000600052602260045260246000fd5b600060028204905060018216806112a057607f821691505b602082108114156112b4576112b3611259565b5b50919050565b7f4e487b7100000000000000000000000000000000000000000000000000000000600052601160045260246000fd5b60006112f482611062565b91506112ff83611062565b9250827fffffffffffffffffffffffffffffffffffffffffffffffffffffffffffffffff03821115611334576113336112ba565b5b828201905092915050565b7f546f6b656e3a4f6e6c79207661756c742063616e206d696e742f6275726e0000600082015250565b6000611375601e83610f4f565b91506113808261133f565b602082019050919050565b600060208201905081810360008301526113a481611368565b9050919050565b7f45524332303a2064656372656173656420616c6c6f77616e63652062656c6f7760008201527f207a65726f000000000000000000000000000000000000000000000000000000602082015250565b6000611407602583610f4f565b9150611412826113ab565b604082019050919050565b60006020820190508181036000830152611436816113fa565b9050919050565b7f45524332303a20617070726f76652066726f6d20746865207a65726f2061646460008201527f7265737300000000000000000000000000000000000000000000000000000000602082015250565b6000611499602483610f4f565b91506114a48261143d565b604082019050919050565b600060208201905081810360008301526114c88161148c565b9050919050565b7f45524332303a20617070726f766520746f20746865207a65726f20616464726560008201527f7373000000000000000000000000000000000000000000000000000000000000602082015250565b600061152b602283610f4f565b9150611536826114cf565b604082019050919050565b6000602082019050818103600083015261155a8161151e565b9050919050565b7f45524332303a20696e73756666696369656e7420616c6c6f77616e6365000000600082015250565b6000611597601d83610f4f565b91506115a282611561565b602082019050919050565b600060208201905081810360008301526115c68161158a565b9050919050565b7f45524332303a207472616e736665722066726f6d20746865207a65726f20616460008201527f6472657373000000000000000000000000000000000000000000000000000000602082015250565b6000611629602583610f4f565b9150611634826115cd565b604082019050919050565b600060208201905081810360008301526116588161161c565b9050919050565b7f45524332303a207472616e7366657220746f20746865207a65726f206164647260008201527f6573730000000000000000000000000000000000000000000000000000000000602082015250565b60006116bb602383610f4f565b91506116c68261165f565b604082019050919050565b600060208201905081810360008301526116ea816116ae565b9050919050565b7f45524332303a207472616e7366657220616d6f756e742065786365656473206260008201527f616c616e63650000000000000000000000000000000000000000000000000000602082015250565b600061174d602683610f4f565b9150611758826116f1565b604082019050919050565b6000602082019050818103600083015261177c81611740565b9050919050565b7f45524332303a206d696e7420746f20746865207a65726f206164647265737300600082015250565b60006117b9601f83610f4f565b91506117c482611783565b602082019050919050565b600060208201905081810360008301526117e8816117ac565b9050919050565b7f45524332303a206275726e2066726f6d20746865207a65726f2061646472657360008201527f7300000000000000000000000000000000000000000000000000000000000000602082015250565b600061184b602183610f4f565b9150611856826117ef565b604082019050919050565b6000602082019050818103600083015261187a8161183e565b9050919050565b7f45524332303a206275726e20616d6f756e7420657863656564732062616c616e60008201527f6365000000000000000000000000000000000000000000000000000000000000602082015250565b60006118dd602283610f4f565b91506118e882611881565b604082019050919050565b6000602082019050818103600083015261190c816118d0565b9050919050565b600061191e82611062565b915061192983611062565b92508282101561193c5761193b6112ba565b5b82820390509291505056fea2646970667358221220a42b8c0e716b1934738b0f920b1f345d4467c189a717f5db133982a7f113b3a564736f6c63430008090033",
  "linkReferences": {},
  "deployedLinkReferences": {}
}